{
  "_format": "hh-sol-artifact-1",
  "contractName": "MetaAds",
  "sourceName": "contracts/metaAds.sol",
  "abi": [
    {
      "inputs": [],
      "stateMutability": "nonpayable",
      "type": "constructor"
    },
    {
      "anonymous": false,
      "inputs": [
        {
          "indexed": true,
          "internalType": "address",
          "name": "owner",
          "type": "address"
        },
        {
          "indexed": true,
          "internalType": "address",
          "name": "approved",
          "type": "address"
        },
        {
          "indexed": true,
          "internalType": "uint256",
          "name": "tokenId",
          "type": "uint256"
        }
      ],
      "name": "Approval",
      "type": "event"
    },
    {
      "anonymous": false,
      "inputs": [
        {
          "indexed": true,
          "internalType": "address",
          "name": "owner",
          "type": "address"
        },
        {
          "indexed": true,
          "internalType": "address",
          "name": "operator",
          "type": "address"
        },
        {
          "indexed": false,
          "internalType": "bool",
          "name": "approved",
          "type": "bool"
        }
      ],
      "name": "ApprovalForAll",
      "type": "event"
    },
    {
      "anonymous": false,
      "inputs": [
        {
          "indexed": false,
          "internalType": "uint256",
          "name": "_price",
          "type": "uint256"
        },
        {
          "indexed": false,
          "internalType": "uint256",
          "name": "_tokenId",
          "type": "uint256"
        },
        {
          "indexed": false,
          "internalType": "string",
          "name": "_uri",
          "type": "string"
        },
        {
          "indexed": false,
          "internalType": "string",
          "name": "_description",
          "type": "string"
        },
        {
          "indexed": false,
          "internalType": "string",
          "name": "_name",
          "type": "string"
        }
      ],
      "name": "Mint",
      "type": "event"
    },
    {
      "anonymous": false,
      "inputs": [
        {
          "indexed": true,
          "internalType": "address",
          "name": "previousOwner",
          "type": "address"
        },
        {
          "indexed": true,
          "internalType": "address",
          "name": "newOwner",
          "type": "address"
        }
      ],
      "name": "OwnershipTransferred",
      "type": "event"
    },
    {
      "anonymous": false,
      "inputs": [
        {
          "indexed": false,
          "internalType": "uint256",
          "name": "_price",
          "type": "uint256"
        },
        {
          "indexed": false,
          "internalType": "address",
          "name": "_newOwner",
          "type": "address"
        },
        {
          "indexed": false,
          "internalType": "uint256",
          "name": "_endDate",
          "type": "uint256"
        }
      ],
      "name": "SpaceSold",
      "type": "event"
    },
    {
      "anonymous": false,
      "inputs": [
        {
          "indexed": true,
          "internalType": "address",
          "name": "from",
          "type": "address"
        },
        {
          "indexed": true,
          "internalType": "address",
          "name": "to",
          "type": "address"
        },
        {
          "indexed": true,
          "internalType": "uint256",
          "name": "tokenId",
          "type": "uint256"
        }
      ],
      "name": "Transfer",
      "type": "event"
    },
    {
      "anonymous": false,
      "inputs": [
        {
          "indexed": false,
          "internalType": "uint256",
          "name": "_id",
          "type": "uint256"
        }
      ],
      "name": "advertEnded",
      "type": "event"
    },
    {
      "inputs": [
        {
          "internalType": "address",
          "name": "to",
          "type": "address"
        },
        {
          "internalType": "uint256",
          "name": "tokenId",
          "type": "uint256"
        }
      ],
      "name": "approve",
      "outputs": [],
      "stateMutability": "nonpayable",
      "type": "function"
    },
    {
      "inputs": [
        {
          "internalType": "address",
          "name": "owner",
          "type": "address"
        }
      ],
      "name": "balanceOf",
      "outputs": [
        {
          "internalType": "uint256",
          "name": "",
          "type": "uint256"
        }
      ],
      "stateMutability": "view",
      "type": "function"
    },
    {
      "inputs": [
        {
          "internalType": "uint256",
          "name": "_index",
          "type": "uint256"
        },
        {
          "internalType": "uint256",
          "name": "_noOfDays",
          "type": "uint256"
        },
        {
          "internalType": "uint256",
          "name": "_expiryDate",
          "type": "uint256"
        },
        {
          "internalType": "string",
          "name": "_headLine",
          "type": "string"
        },
        {
          "internalType": "string",
          "name": "_visualLink",
          "type": "string"
        },
        {
          "internalType": "string",
          "name": "_adDescription",
          "type": "string"
        }
      ],
      "name": "buySpace",
      "outputs": [],
      "stateMutability": "payable",
      "type": "function"
    },
    {
      "inputs": [
        {
          "internalType": "uint256",
          "name": "_index",
          "type": "uint256"
        }
      ],
      "name": "endAdvert",
      "outputs": [],
      "stateMutability": "nonpayable",
      "type": "function"
    },
    {
      "inputs": [
        {
          "internalType": "uint256",
          "name": "_index",
          "type": "uint256"
        }
      ],
      "name": "getAdvert",
      "outputs": [
        {
          "internalType": "string",
          "name": "",
          "type": "string"
        },
        {
          "internalType": "string",
          "name": "",
          "type": "string"
        },
        {
          "internalType": "string",
          "name": "",
          "type": "string"
        },
        {
          "internalType": "uint256",
          "name": "",
          "type": "uint256"
        },
        {
          "internalType": "address",
          "name": "",
          "type": "address"
        }
      ],
      "stateMutability": "view",
      "type": "function"
    },
    {
      "inputs": [
        {
          "internalType": "uint256",
          "name": "tokenId",
          "type": "uint256"
        }
      ],
      "name": "getApproved",
      "outputs": [
        {
          "internalType": "address",
          "name": "",
          "type": "address"
        }
      ],
      "stateMutability": "view",
      "type": "function"
    },
    {
      "inputs": [
        {
          "internalType": "uint256",
          "name": "_index",
          "type": "uint256"
        }
      ],
      "name": "getEndDate",
      "outputs": [
        {
          "internalType": "uint256",
          "name": "",
          "type": "uint256"
        }
      ],
      "stateMutability": "view",
      "type": "function"
    },
    {
      "inputs": [
        {
          "internalType": "uint256",
          "name": "_tokenId",
          "type": "uint256"
        }
      ],
      "name": "getSpace",
      "outputs": [
        {
          "internalType": "bool",
          "name": "",
          "type": "bool"
        },
        {
          "internalType": "uint256",
          "name": "",
          "type": "uint256"
        },
        {
          "internalType": "uint256",
          "name": "",
          "type": "uint256"
        },
        {
          "internalType": "uint256",
          "name": "",
          "type": "uint256"
        },
        {
          "internalType": "string",
          "name": "",
          "type": "string"
        },
        {
          "internalType": "string",
          "name": "",
          "type": "string"
        },
        {
          "internalType": "address",
          "name": "",
          "type": "address"
        },
        {
          "internalType": "address",
          "name": "",
          "type": "address"
        }
      ],
      "stateMutability": "view",
      "type": "function"
    },
    {
      "inputs": [
        {
          "internalType": "address",
          "name": "owner",
          "type": "address"
        },
        {
          "internalType": "address",
          "name": "operator",
          "type": "address"
        }
      ],
      "name": "isApprovedForAll",
      "outputs": [
        {
          "internalType": "bool",
          "name": "",
          "type": "bool"
        }
      ],
      "stateMutability": "view",
      "type": "function"
    },
    {
      "inputs": [
        {
          "internalType": "string",
          "name": "uri",
          "type": "string"
        },
        {
          "internalType": "uint256",
          "name": "_price",
          "type": "uint256"
        },
        {
          "internalType": "uint256",
          "name": "_dailyVisits",
          "type": "uint256"
        },
        {
          "internalType": "string",
          "name": "_description",
          "type": "string"
        },
        {
          "internalType": "string",
          "name": "_name",
          "type": "string"
        }
      ],
      "name": "mintSpace",
      "outputs": [],
      "stateMutability": "payable",
      "type": "function"
    },
    {
      "inputs": [
        {
          "internalType": "uint256",
          "name": "_index",
          "type": "uint256"
        },
        {
          "internalType": "uint256",
          "name": "_newPrice",
          "type": "uint256"
        }
      ],
      "name": "modifySpacePrice",
      "outputs": [],
      "stateMutability": "nonpayable",
      "type": "function"
    },
    {
      "inputs": [],
      "name": "name",
      "outputs": [
        {
          "internalType": "string",
          "name": "",
          "type": "string"
        }
      ],
      "stateMutability": "view",
      "type": "function"
    },
    {
      "inputs": [],
      "name": "owner",
      "outputs": [
        {
          "internalType": "address",
          "name": "",
          "type": "address"
        }
      ],
      "stateMutability": "view",
      "type": "function"
    },
    {
      "inputs": [
        {
          "internalType": "uint256",
          "name": "tokenId",
          "type": "uint256"
        }
      ],
      "name": "ownerOf",
      "outputs": [
        {
          "internalType": "address",
          "name": "",
          "type": "address"
        }
      ],
      "stateMutability": "view",
      "type": "function"
    },
    {
      "inputs": [],
      "name": "renounceOwnership",
      "outputs": [],
      "stateMutability": "nonpayable",
      "type": "function"
    },
    {
      "inputs": [
        {
          "internalType": "address",
          "name": "from",
          "type": "address"
        },
        {
          "internalType": "address",
          "name": "to",
          "type": "address"
        },
        {
          "internalType": "uint256",
          "name": "tokenId",
          "type": "uint256"
        }
      ],
      "name": "safeTransferFrom",
      "outputs": [],
      "stateMutability": "nonpayable",
      "type": "function"
    },
    {
      "inputs": [
        {
          "internalType": "address",
          "name": "from",
          "type": "address"
        },
        {
          "internalType": "address",
          "name": "to",
          "type": "address"
        },
        {
          "internalType": "uint256",
          "name": "tokenId",
          "type": "uint256"
        },
        {
          "internalType": "bytes",
          "name": "data",
          "type": "bytes"
        }
      ],
      "name": "safeTransferFrom",
      "outputs": [],
      "stateMutability": "nonpayable",
      "type": "function"
    },
    {
      "inputs": [
        {
          "internalType": "address",
          "name": "operator",
          "type": "address"
        },
        {
          "internalType": "bool",
          "name": "approved",
          "type": "bool"
        }
      ],
      "name": "setApprovalForAll",
      "outputs": [],
      "stateMutability": "nonpayable",
      "type": "function"
    },
    {
      "inputs": [
        {
          "internalType": "bytes4",
          "name": "interfaceId",
          "type": "bytes4"
        }
      ],
      "name": "supportsInterface",
      "outputs": [
        {
          "internalType": "bool",
          "name": "",
          "type": "bool"
        }
      ],
      "stateMutability": "view",
      "type": "function"
    },
    {
      "inputs": [],
      "name": "symbol",
      "outputs": [
        {
          "internalType": "string",
          "name": "",
          "type": "string"
        }
      ],
      "stateMutability": "view",
      "type": "function"
    },
    {
      "inputs": [
        {
          "internalType": "uint256",
          "name": "index",
          "type": "uint256"
        }
      ],
      "name": "tokenByIndex",
      "outputs": [
        {
          "internalType": "uint256",
          "name": "",
          "type": "uint256"
        }
      ],
      "stateMutability": "view",
      "type": "function"
    },
    {
      "inputs": [
        {
          "internalType": "address",
          "name": "owner",
          "type": "address"
        },
        {
          "internalType": "uint256",
          "name": "index",
          "type": "uint256"
        }
      ],
      "name": "tokenOfOwnerByIndex",
      "outputs": [
        {
          "internalType": "uint256",
          "name": "",
          "type": "uint256"
        }
      ],
      "stateMutability": "view",
      "type": "function"
    },
    {
      "inputs": [
        {
          "internalType": "uint256",
          "name": "tokenId",
          "type": "uint256"
        }
      ],
      "name": "tokenURI",
      "outputs": [
        {
          "internalType": "string",
          "name": "",
          "type": "string"
        }
      ],
      "stateMutability": "view",
      "type": "function"
    },
    {
      "inputs": [],
      "name": "totalSupply",
      "outputs": [
        {
          "internalType": "uint256",
          "name": "",
          "type": "uint256"
        }
      ],
      "stateMutability": "view",
      "type": "function"
    },
    {
      "inputs": [
        {
          "internalType": "address",
          "name": "from",
          "type": "address"
        },
        {
          "internalType": "address",
          "name": "to",
          "type": "address"
        },
        {
          "internalType": "uint256",
          "name": "tokenId",
          "type": "uint256"
        }
      ],
      "name": "transferFrom",
      "outputs": [],
      "stateMutability": "nonpayable",
      "type": "function"
    },
    {
      "inputs": [
        {
          "internalType": "address",
          "name": "newOwner",
          "type": "address"
        }
      ],
      "name": "transferOwnership",
      "outputs": [],
      "stateMutability": "nonpayable",
      "type": "function"
    }
  ],
  "bytecode": "0x60806040523480156200001157600080fd5b506040518060400160405280600781526020017f4d657461416473000000000000000000000000000000000000000000000000008152506040518060400160405280600581526020017f4d54414453000000000000000000000000000000000000000000000000000000815250816000908051906020019062000096929190620001a6565b508060019080519060200190620000af929190620001a6565b505050620000d2620000c6620000d860201b60201c565b620000e060201b60201c565b620002bb565b600033905090565b6000600b60009054906101000a900473ffffffffffffffffffffffffffffffffffffffff16905081600b60006101000a81548173ffffffffffffffffffffffffffffffffffffffff021916908373ffffffffffffffffffffffffffffffffffffffff1602179055508173ffffffffffffffffffffffffffffffffffffffff168173ffffffffffffffffffffffffffffffffffffffff167f8be0079c531659141344cd1fd0a4f28419497f9722a3daafe3b4186f6b6457e060405160405180910390a35050565b828054620001b49062000256565b90600052602060002090601f016020900481019282620001d8576000855562000224565b82601f10620001f357805160ff191683800117855562000224565b8280016001018555821562000224579182015b828111156200022357825182559160200191906001019062000206565b5b50905062000233919062000237565b5090565b5b808211156200025257600081600090555060010162000238565b5090565b600060028204905060018216806200026f57607f821691505b602082108114156200028657620002856200028c565b5b50919050565b7f4e487b7100000000000000000000000000000000000000000000000000000000600052602260045260246000fd5b614d8580620002cb6000396000f3fe6080604052600436106101815760003560e01c806370a08231116100d1578063a22cb4651161008a578063c87b56dd11610064578063c87b56dd146105b4578063e1f6da0d146105f1578063e985e9c51461060d578063f2fde38b1461064a57610181565b8063a22cb46514610539578063b88d4fde14610562578063c855c7391461058b57610181565b806370a082311461040a57806370e1043114610447578063715018a61461048b578063817339b6146104a25780638da5cb5b146104e357806395d89b411461050e57610181565b806323b872dd1161013e5780634f6ccce7116101185780634f6ccce71461032a5780635c6b047a146103675780635d239a48146103a45780636352211e146103cd57610181565b806323b872dd1461029b5780632f745c59146102c457806342842e0e1461030157610181565b806301ffc9a71461018657806306fdde03146101c3578063081812fc146101ee578063095ea7b31461022b57806318160ddd1461025457806323171f491461027f575b600080fd5b34801561019257600080fd5b506101ad60048036038101906101a891906139bd565b610673565b6040516101ba9190614060565b60405180910390f35b3480156101cf57600080fd5b506101d8610685565b6040516101e59190614107565b60405180910390f35b3480156101fa57600080fd5b5061021560048036038101906102109190613ad1565b610717565b6040516102229190613ff9565b60405180910390f35b34801561023757600080fd5b50610252600480360381019061024d9190613981565b61075d565b005b34801561026057600080fd5b50610269610875565b60405161027691906143f1565b60405180910390f35b61029960048036038101906102949190613a0f565b610882565b005b3480156102a757600080fd5b506102c260048036038101906102bd919061387b565b61098f565b005b3480156102d057600080fd5b506102eb60048036038101906102e69190613981565b6109ef565b6040516102f891906143f1565b60405180910390f35b34801561030d57600080fd5b506103286004803603810190610323919061387b565b610a94565b005b34801561033657600080fd5b50610351600480360381019061034c9190613ad1565b610ab4565b60405161035e91906143f1565b60405180910390f35b34801561037357600080fd5b5061038e60048036038101906103899190613ad1565b610b4b565b60405161039b91906143f1565b60405180910390f35b3480156103b057600080fd5b506103cb60048036038101906103c69190613afa565b610b6b565b005b3480156103d957600080fd5b506103f460048036038101906103ef9190613ad1565b610c07565b6040516104019190613ff9565b60405180910390f35b34801561041657600080fd5b50610431600480360381019061042c9190613816565b610c8e565b60405161043e91906143f1565b60405180910390f35b34801561045357600080fd5b5061046e60048036038101906104699190613ad1565b610d46565b60405161048298979695949392919061407b565b60405180910390f35b34801561049757600080fd5b506104a0610fc2565b005b3480156104ae57600080fd5b506104c960048036038101906104c49190613ad1565b610fd6565b6040516104da959493929190614129565b60405180910390f35b3480156104ef57600080fd5b506104f8611243565b6040516105059190613ff9565b60405180910390f35b34801561051a57600080fd5b5061052361126d565b6040516105309190614107565b60405180910390f35b34801561054557600080fd5b50610560600480360381019061055b9190613945565b6112ff565b005b34801561056e57600080fd5b50610589600480360381019061058491906138ca565b611315565b005b34801561059757600080fd5b506105b260048036038101906105ad9190613ad1565b611377565b005b3480156105c057600080fd5b506105db60048036038101906105d69190613ad1565b611569565b6040516105e89190614107565b60405180910390f35b61060b60048036038101906106069190613b36565b61157b565b005b34801561061957600080fd5b50610634600480360381019061062f919061383f565b6117c9565b6040516106419190614060565b60405180910390f35b34801561065657600080fd5b50610671600480360381019061066c9190613816565b61185d565b005b600061067e826118e1565b9050919050565b6060600080546106949061471c565b80601f01602080910402602001604051908101604052809291908181526020018280546106c09061471c565b801561070d5780601f106106e25761010080835404028352916020019161070d565b820191906000526020600020905b8154815290600101906020018083116106f057829003601f168201915b5050505050905090565b60006107228261195b565b6004600083815260200190815260200160002060009054906101000a900473ffffffffffffffffffffffffffffffffffffffff169050919050565b600061076882610c07565b90508073ffffffffffffffffffffffffffffffffffffffff168373ffffffffffffffffffffffffffffffffffffffff1614156107d9576040517f08c379a00000000000000000000000000000000000000000000000000000000081526004016107d090614371565b60405180910390fd5b8073ffffffffffffffffffffffffffffffffffffffff166107f86119a6565b73ffffffffffffffffffffffffffffffffffffffff1614806108275750610826816108216119a6565b6117c9565b5b610866576040517f08c379a000000000000000000000000000000000000000000000000000000000815260040161085d90614391565b60405180910390fd5b61087083836119ae565b505050565b6000600880549050905090565b600086869050116108c8576040517f08c379a00000000000000000000000000000000000000000000000000000000081526004016108bf906142f1565b60405180910390fd5b6108d2600c611a67565b60006108de600c611a7d565b90506108ea3382611a8b565b6109388188888080601f016020809104026020016040519081016040528093929190818152602001838380828437600081840152601f19601f82011690508083019250505050505050611aa9565b6109458582868686611b1d565b7f041867f4f5721c7406919daf1159586c763be858363748cb3751528aa82ec77985828989878760405161097e96959493929190614443565b60405180910390a150505050505050565b6109a061099a6119a6565b82611cca565b6109df576040517f08c379a00000000000000000000000000000000000000000000000000000000081526004016109d690614191565b60405180910390fd5b6109ea838383611d5f565b505050565b60006109fa83610c8e565b8210610a3b576040517f08c379a0000000000000000000000000000000000000000000000000000000008152600401610a32906141b1565b60405180910390fd5b600660008473ffffffffffffffffffffffffffffffffffffffff1673ffffffffffffffffffffffffffffffffffffffff168152602001908152602001600020600083815260200190815260200160002054905092915050565b610aaf83838360405180602001604052806000815250611315565b505050565b6000610abe610875565b8210610aff576040517f08c379a0000000000000000000000000000000000000000000000000000000008152600401610af6906143b1565b60405180910390fd5b60088281548110610b39577f4e487b7100000000000000000000000000000000000000000000000000000000600052603260045260246000fd5b90600052602060002001549050919050565b6000600f6000838152602001908152602001600020600301549050919050565b81600e600082815260200190815260200160002060060160009054906101000a900473ffffffffffffffffffffffffffffffffffffffff1673ffffffffffffffffffffffffffffffffffffffff163373ffffffffffffffffffffffffffffffffffffffff1614610bda57600080fd5b60008211610be757600080fd5b81600e600085815260200190815260200160002060010181905550505050565b600080610c1383612059565b9050600073ffffffffffffffffffffffffffffffffffffffff168173ffffffffffffffffffffffffffffffffffffffff161415610c85576040517f08c379a0000000000000000000000000000000000000000000000000000000008152600401610c7c90614351565b60405180910390fd5b80915050919050565b60008073ffffffffffffffffffffffffffffffffffffffff168273ffffffffffffffffffffffffffffffffffffffff161415610cff576040517f08c379a0000000000000000000000000000000000000000000000000000000008152600401610cf6906142b1565b60405180910390fd5b600360008373ffffffffffffffffffffffffffffffffffffffff1673ffffffffffffffffffffffffffffffffffffffff168152602001908152602001600020549050919050565b6000806000806060806000806000600e60008b8152602001908152602001600020604051806101000160405290816000820160009054906101000a900460ff16151515158152602001600182015481526020016002820154815260200160038201548152602001600482018054610dbc9061471c565b80601f0160208091040260200160405190810160405280929190818152602001828054610de89061471c565b8015610e355780601f10610e0a57610100808354040283529160200191610e35565b820191906000526020600020905b815481529060010190602001808311610e1857829003601f168201915b50505050508152602001600582018054610e4e9061471c565b80601f0160208091040260200160405190810160405280929190818152602001828054610e7a9061471c565b8015610ec75780601f10610e9c57610100808354040283529160200191610ec7565b820191906000526020600020905b815481529060010190602001808311610eaa57829003601f168201915b505050505081526020016006820160009054906101000a900473ffffffffffffffffffffffffffffffffffffffff1673ffffffffffffffffffffffffffffffffffffffff1673ffffffffffffffffffffffffffffffffffffffff1681526020016007820160009054906101000a900473ffffffffffffffffffffffffffffffffffffffff1673ffffffffffffffffffffffffffffffffffffffff1673ffffffffffffffffffffffffffffffffffffffff16815250509050806000015181602001518260400151836060015184608001518560a001518660c001518760e001519850985098509850985098509850985050919395975091939597565b610fca612096565b610fd46000612114565b565b60608060606000806000600f60008881526020019081526020016000206040518060a001604052908160008201805461100e9061471c565b80601f016020809104026020016040519081016040528092919081815260200182805461103a9061471c565b80156110875780601f1061105c57610100808354040283529160200191611087565b820191906000526020600020905b81548152906001019060200180831161106a57829003601f168201915b505050505081526020016001820180546110a09061471c565b80601f01602080910402602001604051908101604052809291908181526020018280546110cc9061471c565b80156111195780601f106110ee57610100808354040283529160200191611119565b820191906000526020600020905b8154815290600101906020018083116110fc57829003601f168201915b505050505081526020016002820180546111329061471c565b80601f016020809104026020016040519081016040528092919081815260200182805461115e9061471c565b80156111ab5780601f10611180576101008083540402835291602001916111ab565b820191906000526020600020905b81548152906001019060200180831161118e57829003601f168201915b50505050508152602001600382015481526020016004820160009054906101000a900473ffffffffffffffffffffffffffffffffffffffff1673ffffffffffffffffffffffffffffffffffffffff1673ffffffffffffffffffffffffffffffffffffffff1681525050905080600001518160200151826040015183606001518460800151955095509550955095505091939590929450565b6000600b60009054906101000a900473ffffffffffffffffffffffffffffffffffffffff16905090565b60606001805461127c9061471c565b80601f01602080910402602001604051908101604052809291908181526020018280546112a89061471c565b80156112f55780601f106112ca576101008083540402835291602001916112f5565b820191906000526020600020905b8154815290600101906020018083116112d857829003601f168201915b5050505050905090565b61131161130a6119a6565b83836121da565b5050565b6113266113206119a6565b83611cca565b611365576040517f08c379a000000000000000000000000000000000000000000000000000000000815260040161135c90614191565b60405180910390fd5b61137184848484612347565b50505050565b80600e600082815260200190815260200160002060060160009054906101000a900473ffffffffffffffffffffffffffffffffffffffff1673ffffffffffffffffffffffffffffffffffffffff163373ffffffffffffffffffffffffffffffffffffffff16146113e657600080fd5b600f600083815260200190815260200160002060030154421161140857600080fd5b6000600e6000848152602001908152602001600020905060018160000160006101000a81548160ff02191690831515021790555060008160070160006101000a81548173ffffffffffffffffffffffffffffffffffffffff021916908373ffffffffffffffffffffffffffffffffffffffff16021790555061152d836040518060400160405280600181526020017f20000000000000000000000000000000000000000000000000000000000000008152506040518060400160405280600181526020017f20000000000000000000000000000000000000000000000000000000000000008152506040518060400160405280600181526020017f200000000000000000000000000000000000000000000000000000000000000081525060006123a3565b7f6bf88cbe53011a10501ca2a1a3c3492f0b7c1ef79f3391b6bd55ff6a7dc8ba7c8360405161155c91906143f1565b60405180910390a1505050565b606061157482612513565b9050919050565b6000600e600088815260200190815260200160002090508060060160009054906101000a900473ffffffffffffffffffffffffffffffffffffffff1673ffffffffffffffffffffffffffffffffffffffff163373ffffffffffffffffffffffffffffffffffffffff1614156115ef57600080fd5b600115158160000160009054906101000a900460ff1615151461161157600080fd5b600086826001015461162391906145d8565b905080341461163157600080fd5b6000808360060160009054906101000a900473ffffffffffffffffffffffffffffffffffffffff1673ffffffffffffffffffffffffffffffffffffffff168360405161167c90613fe4565b60006040518083038185875af1925050503d80600081146116b9576040519150601f19603f3d011682016040523d82523d6000602084013e6116be565b606091505b509150915081611703576040517f08c379a00000000000000000000000000000000000000000000000000000000081526004016116fa90614211565b60405180910390fd5b338460070160006101000a81548173ffffffffffffffffffffffffffffffffffffffff021916908373ffffffffffffffffffffffffffffffffffffffff16021790555060008460000160006101000a81548160ff021916908315150217905550600061176e89612626565b905061177d8b898989856123a3565b7fdc947e960a23e392e880a3e800668bf5ed41a4442238912cc43b5e9f7e6227bf856001015433836040516117b49392919061440c565b60405180910390a15050505050505050505050565b6000600560008473ffffffffffffffffffffffffffffffffffffffff1673ffffffffffffffffffffffffffffffffffffffff16815260200190815260200160002060008373ffffffffffffffffffffffffffffffffffffffff1673ffffffffffffffffffffffffffffffffffffffff16815260200190815260200160002060009054906101000a900460ff16905092915050565b611865612096565b600073ffffffffffffffffffffffffffffffffffffffff168173ffffffffffffffffffffffffffffffffffffffff1614156118d5576040517f08c379a00000000000000000000000000000000000000000000000000000000081526004016118cc906141f1565b60405180910390fd5b6118de81612114565b50565b60007f780e9d63000000000000000000000000000000000000000000000000000000007bffffffffffffffffffffffffffffffffffffffffffffffffffffffff1916827bffffffffffffffffffffffffffffffffffffffffffffffffffffffff19161480611954575061195382612640565b5b9050919050565b61196481612722565b6119a3576040517f08c379a000000000000000000000000000000000000000000000000000000000815260040161199a90614351565b60405180910390fd5b50565b600033905090565b816004600083815260200190815260200160002060006101000a81548173ffffffffffffffffffffffffffffffffffffffff021916908373ffffffffffffffffffffffffffffffffffffffff160217905550808273ffffffffffffffffffffffffffffffffffffffff16611a2183610c07565b73ffffffffffffffffffffffffffffffffffffffff167f8c5be1e5ebec7d5bd14f71427d1e84f3dd0314c0f7b2291e5b200ac8c7c3b92560405160405180910390a45050565b6001816000016000828254019250508190555050565b600081600001549050919050565b611aa5828260405180602001604052806000815250612763565b5050565b611ab282612722565b611af1576040517f08c379a0000000000000000000000000000000000000000000000000000000008152600401611ae8906142d1565b60405180910390fd5b80600a60008481526020019081526020016000209080519060200190611b189291906135f0565b505050565b60008511611b2a57600080fd5b6040518061010001604052806001151581526020018681526020018581526020018481526020018381526020018281526020013373ffffffffffffffffffffffffffffffffffffffff168152602001600073ffffffffffffffffffffffffffffffffffffffff16815250600e6000611ba2600d611a7d565b815260200190815260200160002060008201518160000160006101000a81548160ff0219169083151502179055506020820151816001015560408201518160020155606082015181600301556080820151816004019080519060200190611c0a9291906135f0565b5060a0820151816005019080519060200190611c279291906135f0565b5060c08201518160060160006101000a81548173ffffffffffffffffffffffffffffffffffffffff021916908373ffffffffffffffffffffffffffffffffffffffff16021790555060e08201518160070160006101000a81548173ffffffffffffffffffffffffffffffffffffffff021916908373ffffffffffffffffffffffffffffffffffffffff160217905550905050611cc3600d611a67565b5050505050565b600080611cd683610c07565b90508073ffffffffffffffffffffffffffffffffffffffff168473ffffffffffffffffffffffffffffffffffffffff161480611d185750611d1781856117c9565b5b80611d5657508373ffffffffffffffffffffffffffffffffffffffff16611d3e84610717565b73ffffffffffffffffffffffffffffffffffffffff16145b91505092915050565b8273ffffffffffffffffffffffffffffffffffffffff16611d7f82610c07565b73ffffffffffffffffffffffffffffffffffffffff1614611dd5576040517f08c379a0000000000000000000000000000000000000000000000000000000008152600401611dcc90614231565b60405180910390fd5b600073ffffffffffffffffffffffffffffffffffffffff168273ffffffffffffffffffffffffffffffffffffffff161415611e45576040517f08c379a0000000000000000000000000000000000000000000000000000000008152600401611e3c90614271565b60405180910390fd5b611e5283838360016127be565b8273ffffffffffffffffffffffffffffffffffffffff16611e7282610c07565b73ffffffffffffffffffffffffffffffffffffffff1614611ec8576040517f08c379a0000000000000000000000000000000000000000000000000000000008152600401611ebf90614231565b60405180910390fd5b6004600082815260200190815260200160002060006101000a81549073ffffffffffffffffffffffffffffffffffffffff02191690556001600360008573ffffffffffffffffffffffffffffffffffffffff1673ffffffffffffffffffffffffffffffffffffffff168152602001908152602001600020600082825403925050819055506001600360008473ffffffffffffffffffffffffffffffffffffffff1673ffffffffffffffffffffffffffffffffffffffff16815260200190815260200160002060008282540192505081905550816002600083815260200190815260200160002060006101000a81548173ffffffffffffffffffffffffffffffffffffffff021916908373ffffffffffffffffffffffffffffffffffffffff160217905550808273ffffffffffffffffffffffffffffffffffffffff168473ffffffffffffffffffffffffffffffffffffffff167fddf252ad1be2c89b69c2b068fc378daa952ba7f163c4a11628f55a4df523b3ef60405160405180910390a461205483838360016127d0565b505050565b60006002600083815260200190815260200160002060009054906101000a900473ffffffffffffffffffffffffffffffffffffffff169050919050565b61209e6119a6565b73ffffffffffffffffffffffffffffffffffffffff166120bc611243565b73ffffffffffffffffffffffffffffffffffffffff1614612112576040517f08c379a000000000000000000000000000000000000000000000000000000000815260040161210990614331565b60405180910390fd5b565b6000600b60009054906101000a900473ffffffffffffffffffffffffffffffffffffffff16905081600b60006101000a81548173ffffffffffffffffffffffffffffffffffffffff021916908373ffffffffffffffffffffffffffffffffffffffff1602179055508173ffffffffffffffffffffffffffffffffffffffff168173ffffffffffffffffffffffffffffffffffffffff167f8be0079c531659141344cd1fd0a4f28419497f9722a3daafe3b4186f6b6457e060405160405180910390a35050565b8173ffffffffffffffffffffffffffffffffffffffff168373ffffffffffffffffffffffffffffffffffffffff161415612249576040517f08c379a000000000000000000000000000000000000000000000000000000000815260040161224090614291565b60405180910390fd5b80600560008573ffffffffffffffffffffffffffffffffffffffff1673ffffffffffffffffffffffffffffffffffffffff16815260200190815260200160002060008473ffffffffffffffffffffffffffffffffffffffff1673ffffffffffffffffffffffffffffffffffffffff16815260200190815260200160002060006101000a81548160ff0219169083151502179055508173ffffffffffffffffffffffffffffffffffffffff168373ffffffffffffffffffffffffffffffffffffffff167f17307eab39ab6107e8899845ad3d59bd9653f200f220920489ca2b5937696c318360405161233a9190614060565b60405180910390a3505050565b612352848484611d5f565b61235e848484846127d6565b61239d576040517f08c379a0000000000000000000000000000000000000000000000000000000008152600401612394906141d1565b60405180910390fd5b50505050565b600e600086815260200190815260200160002060070160009054906101000a900473ffffffffffffffffffffffffffffffffffffffff1673ffffffffffffffffffffffffffffffffffffffff163373ffffffffffffffffffffffffffffffffffffffff161461241157600080fd5b6040518060a001604052808581526020018481526020018381526020018281526020013373ffffffffffffffffffffffffffffffffffffffff16815250600f6000878152602001908152602001600020600082015181600001908051906020019061247d9291906135f0565b50602082015181600101908051906020019061249a9291906135f0565b5060408201518160020190805190602001906124b79291906135f0565b506060820151816003015560808201518160040160006101000a81548173ffffffffffffffffffffffffffffffffffffffff021916908373ffffffffffffffffffffffffffffffffffffffff1602179055509050505050505050565b606061251e8261195b565b6000600a6000848152602001908152602001600020805461253e9061471c565b80601f016020809104026020016040519081016040528092919081815260200182805461256a9061471c565b80156125b75780601f1061258c576101008083540402835291602001916125b7565b820191906000526020600020905b81548152906001019060200180831161259a57829003601f168201915b5050505050905060006125c861296d565b90506000815114156125de578192505050612621565b6000825111156126135780826040516020016125fb929190613fc0565b60405160208183030381529060405292505050612621565b61261c84612984565b925050505b919050565b60008082426126359190614582565b905080915050919050565b60007f80ac58cd000000000000000000000000000000000000000000000000000000007bffffffffffffffffffffffffffffffffffffffffffffffffffffffff1916827bffffffffffffffffffffffffffffffffffffffffffffffffffffffff1916148061270b57507f5b5e139f000000000000000000000000000000000000000000000000000000007bffffffffffffffffffffffffffffffffffffffffffffffffffffffff1916827bffffffffffffffffffffffffffffffffffffffffffffffffffffffff1916145b8061271b575061271a826129ec565b5b9050919050565b60008073ffffffffffffffffffffffffffffffffffffffff1661274483612059565b73ffffffffffffffffffffffffffffffffffffffff1614159050919050565b61276d8383612a56565b61277a60008484846127d6565b6127b9576040517f08c379a00000000000000000000000000000000000000000000000000000000081526004016127b0906141d1565b60405180910390fd5b505050565b6127ca84848484612c74565b50505050565b50505050565b60006127f78473ffffffffffffffffffffffffffffffffffffffff16612dd4565b15612960578373ffffffffffffffffffffffffffffffffffffffff1663150b7a026128206119a6565b8786866040518563ffffffff1660e01b81526004016128429493929190614014565b602060405180830381600087803b15801561285c57600080fd5b505af192505050801561288d57506040513d601f19601f8201168201806040525081019061288a91906139e6565b60015b612910573d80600081146128bd576040519150601f19603f3d011682016040523d82523d6000602084013e6128c2565b606091505b50600081511415612908576040517f08c379a00000000000000000000000000000000000000000000000000000000081526004016128ff906141d1565b60405180910390fd5b805181602001fd5b63150b7a0260e01b7bffffffffffffffffffffffffffffffffffffffffffffffffffffffff1916817bffffffffffffffffffffffffffffffffffffffffffffffffffffffff191614915050612965565b600190505b949350505050565b606060405180602001604052806000815250905090565b606061298f8261195b565b600061299961296d565b905060008151116129b957604051806020016040528060008152506129e4565b806129c384612df7565b6040516020016129d4929190613fc0565b6040516020818303038152906040525b915050919050565b60007f01ffc9a7000000000000000000000000000000000000000000000000000000007bffffffffffffffffffffffffffffffffffffffffffffffffffffffff1916827bffffffffffffffffffffffffffffffffffffffffffffffffffffffff1916149050919050565b600073ffffffffffffffffffffffffffffffffffffffff168273ffffffffffffffffffffffffffffffffffffffff161415612ac6576040517f08c379a0000000000000000000000000000000000000000000000000000000008152600401612abd90614311565b60405180910390fd5b612acf81612722565b15612b0f576040517f08c379a0000000000000000000000000000000000000000000000000000000008152600401612b0690614251565b60405180910390fd5b612b1d6000838360016127be565b612b2681612722565b15612b66576040517f08c379a0000000000000000000000000000000000000000000000000000000008152600401612b5d90614251565b60405180910390fd5b6001600360008473ffffffffffffffffffffffffffffffffffffffff1673ffffffffffffffffffffffffffffffffffffffff16815260200190815260200160002060008282540192505081905550816002600083815260200190815260200160002060006101000a81548173ffffffffffffffffffffffffffffffffffffffff021916908373ffffffffffffffffffffffffffffffffffffffff160217905550808273ffffffffffffffffffffffffffffffffffffffff16600073ffffffffffffffffffffffffffffffffffffffff167fddf252ad1be2c89b69c2b068fc378daa952ba7f163c4a11628f55a4df523b3ef60405160405180910390a4612c706000838360016127d0565b5050565b612c8084848484612f1b565b6001811115612cc4576040517f08c379a0000000000000000000000000000000000000000000000000000000008152600401612cbb906143d1565b60405180910390fd5b6000829050600073ffffffffffffffffffffffffffffffffffffffff168573ffffffffffffffffffffffffffffffffffffffff161415612d0c57612d0781613041565b612d4b565b8373ffffffffffffffffffffffffffffffffffffffff168573ffffffffffffffffffffffffffffffffffffffff1614612d4a57612d49858261308a565b5b5b600073ffffffffffffffffffffffffffffffffffffffff168473ffffffffffffffffffffffffffffffffffffffff161415612d8e57612d89816131f7565b612dcd565b8473ffffffffffffffffffffffffffffffffffffffff168473ffffffffffffffffffffffffffffffffffffffff1614612dcc57612dcb848261333a565b5b5b5050505050565b6000808273ffffffffffffffffffffffffffffffffffffffff163b119050919050565b606060006001612e06846133b9565b01905060008167ffffffffffffffff811115612e4b577f4e487b7100000000000000000000000000000000000000000000000000000000600052604160045260246000fd5b6040519080825280601f01601f191660200182016040528015612e7d5781602001600182028036833780820191505090505b509050600082602001820190505b600115612f10578080600190039150507f3031323334353637383961626364656600000000000000000000000000000000600a86061a8153600a8581612efa577f4e487b7100000000000000000000000000000000000000000000000000000000600052601260045260246000fd5b0494506000851415612f0b57612f10565b612e8b565b819350505050919050565b600181111561303b57600073ffffffffffffffffffffffffffffffffffffffff168473ffffffffffffffffffffffffffffffffffffffff1614612faf5780600360008673ffffffffffffffffffffffffffffffffffffffff1673ffffffffffffffffffffffffffffffffffffffff1681526020019081526020016000206000828254612fa79190614632565b925050819055505b600073ffffffffffffffffffffffffffffffffffffffff168373ffffffffffffffffffffffffffffffffffffffff161461303a5780600360008573ffffffffffffffffffffffffffffffffffffffff1673ffffffffffffffffffffffffffffffffffffffff16815260200190815260200160002060008282546130329190614582565b925050819055505b5b50505050565b6008805490506009600083815260200190815260200160002081905550600881908060018154018082558091505060019003906000526020600020016000909190919091505550565b6000600161309784610c8e565b6130a19190614632565b9050600060076000848152602001908152602001600020549050818114613186576000600660008673ffffffffffffffffffffffffffffffffffffffff1673ffffffffffffffffffffffffffffffffffffffff168152602001908152602001600020600084815260200190815260200160002054905080600660008773ffffffffffffffffffffffffffffffffffffffff1673ffffffffffffffffffffffffffffffffffffffff168152602001908152602001600020600084815260200190815260200160002081905550816007600083815260200190815260200160002081905550505b6007600084815260200190815260200160002060009055600660008573ffffffffffffffffffffffffffffffffffffffff1673ffffffffffffffffffffffffffffffffffffffff16815260200190815260200160002060008381526020019081526020016000206000905550505050565b6000600160088054905061320b9190614632565b9050600060096000848152602001908152602001600020549050600060088381548110613261577f4e487b7100000000000000000000000000000000000000000000000000000000600052603260045260246000fd5b9060005260206000200154905080600883815481106132a9577f4e487b7100000000000000000000000000000000000000000000000000000000600052603260045260246000fd5b90600052602060002001819055508160096000838152602001908152602001600020819055506009600085815260200190815260200160002060009055600880548061331e577f4e487b7100000000000000000000000000000000000000000000000000000000600052603160045260246000fd5b6001900381819060005260206000200160009055905550505050565b600061334583610c8e565b905081600660008573ffffffffffffffffffffffffffffffffffffffff1673ffffffffffffffffffffffffffffffffffffffff168152602001908152602001600020600083815260200190815260200160002081905550806007600084815260200190815260200160002081905550505050565b600080600090507a184f03e93ff9f4daa797ed6e38ed64bf6a1f010000000000000000831061343d577a184f03e93ff9f4daa797ed6e38ed64bf6a1f0100000000000000008381613433577f4e487b7100000000000000000000000000000000000000000000000000000000600052601260045260246000fd5b0492506040810190505b6d04ee2d6d415b85acef810000000083106134a0576d04ee2d6d415b85acef81000000008381613496577f4e487b7100000000000000000000000000000000000000000000000000000000600052601260045260246000fd5b0492506020810190505b662386f26fc1000083106134f557662386f26fc1000083816134eb577f4e487b7100000000000000000000000000000000000000000000000000000000600052601260045260246000fd5b0492506010810190505b6305f5e1008310613544576305f5e100838161353a577f4e487b7100000000000000000000000000000000000000000000000000000000600052601260045260246000fd5b0492506008810190505b612710831061358f576127108381613585577f4e487b7100000000000000000000000000000000000000000000000000000000600052601260045260246000fd5b0492506004810190505b606483106135d857606483816135ce577f4e487b7100000000000000000000000000000000000000000000000000000000600052601260045260246000fd5b0492506002810190505b600a83106135e7576001810190505b80915050919050565b8280546135fc9061471c565b90600052602060002090601f01602090048101928261361e5760008555613665565b82601f1061363757805160ff1916838001178555613665565b82800160010185558215613665579182015b82811115613664578251825591602001919060010190613649565b5b5090506136729190613676565b5090565b5b8082111561368f576000816000905550600101613677565b5090565b60006136a66136a1846144d2565b6144ad565b9050828152602081018484840111156136be57600080fd5b6136c98482856146da565b509392505050565b60006136e46136df84614503565b6144ad565b9050828152602081018484840111156136fc57600080fd5b6137078482856146da565b509392505050565b60008135905061371e81614cf3565b92915050565b60008135905061373381614d0a565b92915050565b60008135905061374881614d21565b92915050565b60008151905061375d81614d21565b92915050565b600082601f83011261377457600080fd5b8135613784848260208601613693565b91505092915050565b60008083601f84011261379f57600080fd5b8235905067ffffffffffffffff8111156137b857600080fd5b6020830191508360018202830111156137d057600080fd5b9250929050565b600082601f8301126137e857600080fd5b81356137f88482602086016136d1565b91505092915050565b60008135905061381081614d38565b92915050565b60006020828403121561382857600080fd5b60006138368482850161370f565b91505092915050565b6000806040838503121561385257600080fd5b60006138608582860161370f565b92505060206138718582860161370f565b9150509250929050565b60008060006060848603121561389057600080fd5b600061389e8682870161370f565b93505060206138af8682870161370f565b92505060406138c086828701613801565b9150509250925092565b600080600080608085870312156138e057600080fd5b60006138ee8782880161370f565b94505060206138ff8782880161370f565b935050604061391087828801613801565b925050606085013567ffffffffffffffff81111561392d57600080fd5b61393987828801613763565b91505092959194509250565b6000806040838503121561395857600080fd5b60006139668582860161370f565b925050602061397785828601613724565b9150509250929050565b6000806040838503121561399457600080fd5b60006139a28582860161370f565b92505060206139b385828601613801565b9150509250929050565b6000602082840312156139cf57600080fd5b60006139dd84828501613739565b91505092915050565b6000602082840312156139f857600080fd5b6000613a068482850161374e565b91505092915050565b60008060008060008060a08789031215613a2857600080fd5b600087013567ffffffffffffffff811115613a4257600080fd5b613a4e89828a0161378d565b96509650506020613a6189828a01613801565b9450506040613a7289828a01613801565b935050606087013567ffffffffffffffff811115613a8f57600080fd5b613a9b89828a016137d7565b925050608087013567ffffffffffffffff811115613ab857600080fd5b613ac489828a016137d7565b9150509295509295509295565b600060208284031215613ae357600080fd5b6000613af184828501613801565b91505092915050565b60008060408385031215613b0d57600080fd5b6000613b1b85828601613801565b9250506020613b2c85828601613801565b9150509250929050565b60008060008060008060c08789031215613b4f57600080fd5b6000613b5d89828a01613801565b9650506020613b6e89828a01613801565b9550506040613b7f89828a01613801565b945050606087013567ffffffffffffffff811115613b9c57600080fd5b613ba889828a016137d7565b935050608087013567ffffffffffffffff811115613bc557600080fd5b613bd189828a016137d7565b92505060a087013567ffffffffffffffff811115613bee57600080fd5b613bfa89828a016137d7565b9150509295509295509295565b613c1081614666565b82525050565b613c1f81614678565b82525050565b6000613c3082614534565b613c3a818561454a565b9350613c4a8185602086016146e9565b613c538161480c565b840191505092915050565b6000613c6a8385614566565b9350613c778385846146da565b613c808361480c565b840190509392505050565b6000613c968261453f565b613ca08185614566565b9350613cb08185602086016146e9565b613cb98161480c565b840191505092915050565b6000613ccf8261453f565b613cd98185614577565b9350613ce98185602086016146e9565b80840191505092915050565b6000613d02602d83614566565b9150613d0d8261481d565b604082019050919050565b6000613d25602b83614566565b9150613d308261486c565b604082019050919050565b6000613d48603283614566565b9150613d53826148bb565b604082019050919050565b6000613d6b602683614566565b9150613d768261490a565b604082019050919050565b6000613d8e600f83614566565b9150613d9982614959565b602082019050919050565b6000613db1602583614566565b9150613dbc82614982565b604082019050919050565b6000613dd4601c83614566565b9150613ddf826149d1565b602082019050919050565b6000613df7602483614566565b9150613e02826149fa565b604082019050919050565b6000613e1a601983614566565b9150613e2582614a49565b602082019050919050565b6000613e3d602983614566565b9150613e4882614a72565b604082019050919050565b6000613e60602e83614566565b9150613e6b82614ac1565b604082019050919050565b6000613e83600983614566565b9150613e8e82614b10565b602082019050919050565b6000613ea6602083614566565b9150613eb182614b39565b602082019050919050565b6000613ec9602083614566565b9150613ed482614b62565b602082019050919050565b6000613eec601883614566565b9150613ef782614b8b565b602082019050919050565b6000613f0f602183614566565b9150613f1a82614bb4565b604082019050919050565b6000613f3260008361455b565b9150613f3d82614c03565b600082019050919050565b6000613f55603d83614566565b9150613f6082614c06565b604082019050919050565b6000613f78602c83614566565b9150613f8382614c55565b604082019050919050565b6000613f9b603583614566565b9150613fa682614ca4565b604082019050919050565b613fba816146d0565b82525050565b6000613fcc8285613cc4565b9150613fd88284613cc4565b91508190509392505050565b6000613fef82613f25565b9150819050919050565b600060208201905061400e6000830184613c07565b92915050565b60006080820190506140296000830187613c07565b6140366020830186613c07565b6140436040830185613fb1565b81810360608301526140558184613c25565b905095945050505050565b60006020820190506140756000830184613c16565b92915050565b600061010082019050614091600083018b613c16565b61409e602083018a613fb1565b6140ab6040830189613fb1565b6140b86060830188613fb1565b81810360808301526140ca8187613c8b565b905081810360a08301526140de8186613c8b565b90506140ed60c0830185613c07565b6140fa60e0830184613c07565b9998505050505050505050565b600060208201905081810360008301526141218184613c8b565b905092915050565b600060a08201905081810360008301526141438188613c8b565b905081810360208301526141578187613c8b565b9050818103604083015261416b8186613c8b565b905061417a6060830185613fb1565b6141876080830184613c07565b9695505050505050565b600060208201905081810360008301526141aa81613cf5565b9050919050565b600060208201905081810360008301526141ca81613d18565b9050919050565b600060208201905081810360008301526141ea81613d3b565b9050919050565b6000602082019050818103600083015261420a81613d5e565b9050919050565b6000602082019050818103600083015261422a81613d81565b9050919050565b6000602082019050818103600083015261424a81613da4565b9050919050565b6000602082019050818103600083015261426a81613dc7565b9050919050565b6000602082019050818103600083015261428a81613dea565b9050919050565b600060208201905081810360008301526142aa81613e0d565b9050919050565b600060208201905081810360008301526142ca81613e30565b9050919050565b600060208201905081810360008301526142ea81613e53565b9050919050565b6000602082019050818103600083015261430a81613e76565b9050919050565b6000602082019050818103600083015261432a81613e99565b9050919050565b6000602082019050818103600083015261434a81613ebc565b9050919050565b6000602082019050818103600083015261436a81613edf565b9050919050565b6000602082019050818103600083015261438a81613f02565b9050919050565b600060208201905081810360008301526143aa81613f48565b9050919050565b600060208201905081810360008301526143ca81613f6b565b9050919050565b600060208201905081810360008301526143ea81613f8e565b9050919050565b60006020820190506144066000830184613fb1565b92915050565b60006060820190506144216000830186613fb1565b61442e6020830185613c07565b61443b6040830184613fb1565b949350505050565b600060a0820190506144586000830189613fb1565b6144656020830188613fb1565b8181036040830152614478818688613c5e565b9050818103606083015261448c8185613c8b565b905081810360808301526144a08184613c8b565b9050979650505050505050565b60006144b76144c8565b90506144c3828261474e565b919050565b6000604051905090565b600067ffffffffffffffff8211156144ed576144ec6147dd565b5b6144f68261480c565b9050602081019050919050565b600067ffffffffffffffff82111561451e5761451d6147dd565b5b6145278261480c565b9050602081019050919050565b600081519050919050565b600081519050919050565b600082825260208201905092915050565b600081905092915050565b600082825260208201905092915050565b600081905092915050565b600061458d826146d0565b9150614598836146d0565b9250827fffffffffffffffffffffffffffffffffffffffffffffffffffffffffffffffff038211156145cd576145cc61477f565b5b828201905092915050565b60006145e3826146d0565b91506145ee836146d0565b9250817fffffffffffffffffffffffffffffffffffffffffffffffffffffffffffffffff04831182151516156146275761462661477f565b5b828202905092915050565b600061463d826146d0565b9150614648836146d0565b92508282101561465b5761465a61477f565b5b828203905092915050565b6000614671826146b0565b9050919050565b60008115159050919050565b60007fffffffff0000000000000000000000000000000000000000000000000000000082169050919050565b600073ffffffffffffffffffffffffffffffffffffffff82169050919050565b6000819050919050565b82818337600083830152505050565b60005b838110156147075780820151818401526020810190506146ec565b83811115614716576000848401525b50505050565b6000600282049050600182168061473457607f821691505b60208210811415614748576147476147ae565b5b50919050565b6147578261480c565b810181811067ffffffffffffffff82111715614776576147756147dd565b5b80604052505050565b7f4e487b7100000000000000000000000000000000000000000000000000000000600052601160045260246000fd5b7f4e487b7100000000000000000000000000000000000000000000000000000000600052602260045260246000fd5b7f4e487b7100000000000000000000000000000000000000000000000000000000600052604160045260246000fd5b6000601f19601f8301169050919050565b7f4552433732313a2063616c6c6572206973206e6f7420746f6b656e206f776e6560008201527f72206f7220617070726f76656400000000000000000000000000000000000000602082015250565b7f455243373231456e756d657261626c653a206f776e657220696e646578206f7560008201527f74206f6620626f756e6473000000000000000000000000000000000000000000602082015250565b7f4552433732313a207472616e7366657220746f206e6f6e20455243373231526560008201527f63656976657220696d706c656d656e7465720000000000000000000000000000602082015250565b7f4f776e61626c653a206e6577206f776e657220697320746865207a65726f206160008201527f6464726573730000000000000000000000000000000000000000000000000000602082015250565b7f5472616e73666572206661696c65640000000000000000000000000000000000600082015250565b7f4552433732313a207472616e736665722066726f6d20696e636f72726563742060008201527f6f776e6572000000000000000000000000000000000000000000000000000000602082015250565b7f4552433732313a20746f6b656e20616c7265616479206d696e74656400000000600082015250565b7f4552433732313a207472616e7366657220746f20746865207a65726f2061646460008201527f7265737300000000000000000000000000000000000000000000000000000000602082015250565b7f4552433732313a20617070726f766520746f2063616c6c657200000000000000600082015250565b7f4552433732313a2061646472657373207a65726f206973206e6f74206120766160008201527f6c6964206f776e65720000000000000000000000000000000000000000000000602082015250565b7f45524337323155524953746f726167653a2055524920736574206f66206e6f6e60008201527f6578697374656e7420746f6b656e000000000000000000000000000000000000602082015250565b7f456d707479207572690000000000000000000000000000000000000000000000600082015250565b7f4552433732313a206d696e7420746f20746865207a65726f2061646472657373600082015250565b7f4f776e61626c653a2063616c6c6572206973206e6f7420746865206f776e6572600082015250565b7f4552433732313a20696e76616c696420746f6b656e2049440000000000000000600082015250565b7f4552433732313a20617070726f76616c20746f2063757272656e74206f776e6560008201527f7200000000000000000000000000000000000000000000000000000000000000602082015250565b50565b7f4552433732313a20617070726f76652063616c6c6572206973206e6f7420746f60008201527f6b656e206f776e6572206f7220617070726f76656420666f7220616c6c000000602082015250565b7f455243373231456e756d657261626c653a20676c6f62616c20696e646578206f60008201527f7574206f6620626f756e64730000000000000000000000000000000000000000602082015250565b7f455243373231456e756d657261626c653a20636f6e736563757469766520747260008201527f616e7366657273206e6f7420737570706f727465640000000000000000000000602082015250565b614cfc81614666565b8114614d0757600080fd5b50565b614d1381614678565b8114614d1e57600080fd5b50565b614d2a81614684565b8114614d3557600080fd5b50565b614d41816146d0565b8114614d4c57600080fd5b5056fea2646970667358221220020fd71c199a194e0239e24798c830d513236e1f13a70923f527f46fe27877a864736f6c63430008040033",
  "linkReferences": {},
  "deployedLinkReferences": {}
}